:1000000000EFF0F00000000000EF00F00000000042
:0A0010000000000000000000F3D71C
:020000040001F9
:04DFFC00000012000F
:10E0000044ECFEF022ECFDF0000E0001616F050E05
:10E01000626F400E636F050E646F0DECFDF0A4ECB3
:10E02000FDF0005206E12CECFDF004ECFDF0E6DF23
:08E0300002D02EECFDF0FFD739
:0EE03800800E00018311006E00C032F0120055
:10E0460083C02FF084C030F085C031F086C033F035
:10E0560087C034F0800E00018811006E00C032F0D7
:02E066001200A6
:10E0680083C02FF084C030F085C033F086C034F010
:10E07800800E00018711006E008000C032F012008F
:10E08800000E056E0D0E066E83C003F0000E046EC2
:10E0980003360436039003360436039084C000F038
:10E0A800000E016E00360136009000500326015024
:10E0B800042203C001F004C002F0013601900236C8
:10E0C80001360190023601C003F002C004F00432A8
:10E0D8000332049E04BC048E04320332049E04BC42
:10E0E800048E03C000F004C001F000360090013631
:10E0F800003600900136055000260650012200C067
:10E1080005F001C006F000C0E1FF01C0E2FFE69E95
:10E1180000018451000A12E183C000F0000E016E74
:10E128000036009001362A0E0024E16E000E012010
:10E13800E26E05C0E6FF06C0E6FF11D083C000F01E
:10E14800000E016E003600900136350E0024E16E97
:10E15800000E0120E26E05C0E6FF06C0E6FF05C01E
:10E16800E1FF06C0E2FFE69C040E0524E16E000E06
:08E178000620E26EE68C1200A5
:10E18000260EE16E0F0EE26E00017E51E126D8B040
:10E19000E22A7FC0E6FF7FA504D07EC083F0846BB7
:10E1A00073DF7FA305D07EC083F0010E846F6CDF28
:02E1B00012005B
:10E1B20000017F51000A12E07EC000F0000E016EE5
:10E1C200003600900136350E0024E96E000E012063
:10E1D200EA6EEECF04F0EECF05F011D07EC000F073
:10E1E200000E016E0036009001362A0E0024E96E00
:10E1F200000E0120EA6EEECF04F0EECF05F0020E23
:10E202000424E16E000E0520E26E80C0E6FF81C0AC
:10E21200E6FF010E0424E16E000E0520E26E82C0CC
:10E22200E6FF04C0E9FF05C0EAFFEECF00F004C03C
:10E23200E1FF05C0E2FF400E0014E66E04C0E9FFF4
:10E2420005C0EAFFEECF00F004C0E1FF05C0E2FF27
:10E25200880E0010E66E7F51000A1BE07EC000F0BF
:10E26200000E016E003600900136350E0024026E5B
:10E27200000E0120036E02C0E9FF03C0EAFF040E94
:10E28200EE18006E02C0E1FF03C0E2FF00C0E6FF2D
:10E292001AD07EC000F0000E016E003600900136EA
:10E2A2002A0E0024026E000E0120036E02C0E9FF56
:10E2B20003C0EAFF040EEE18006E02C0E1FF03C0C5
:10E2C200E2FF00C0E6FF04C000F005C001F012004A
:10E2D20020CD01F01F0E01160150010A01E08BD082
:10E2E2000D012451000A01E086D02151060A38E1CD
:10E2F2002DD04850010A13E1D90E0001836FFB0EA5
:10E30200846F010E856F120E8327000E84238523EE
:10E31200090E866F000E876F400E886F93DE20D045
:10E322004850010A0EE100014A0E836FFC0E846F11
:10E33200010E856F210E866F000E876F400E886F6B
:10E3420081DE0ED00001836B76DE0AD00D012351EF
:10E35200210ACFE02351220AE3E02351230AF2E00B
:10E3620020CD01F0600E0116050E006E005004E093
:10E372000132019EFF0FFBD70150010A01E03BD0A1
:10E3820027D039D038D04D0E0001836F000E846F34
:10E39200010E856F000E866F400E876F64DE2BD0F4
:10E3A2000001836B48DE23CD4DF025D000014C0ED9
:10E3B200836F000E846F010E856F000E866F876B70
:10E3C20052DE19D00001836B36DE22CD4CF013D021
:10E3D2000D012151010AD5E02151090AD3E0215151
:10E3E200020AD1E021510A0ADBE02151030ADEE0F0
:08E3F20021510B0AE7E01200C3
:08E3FA00465201E069DF120048
:10E40200465215E0010E00017E6F1E0E7F6FB7DED1
:10E41200010E7E6F7F6B57C080F058C081F0400EB6
:10E42200826FC6DE00C055F001C056F014D0000164
:10E43200010E7E6F1E0E7F6FA2DE010E7E6F7F6B5E
:10E4420057C080F058C081F0400E826FB1DE00C02C
:08E4520055F001C056F0120064
:10E45A000CD0D2DF3CD03BD0CBDF39D038D037D04C
:10E46A0036D035D0000033D032D0000E00017919F1
:10E47A0002E1010E7819EDE0000E791902E1020EAF
:10E48A007819E9E0000E791902E1030E7819E4E03F
:10E49A007951000A02E1730E7819E0E07951000A15
:10E4AA0002E1750E7819DBE07951000A02E1740E77
:10E4BA007819D6E079513F0A02E1FF0E7819D1E0C6
:10E4CA007951000A02E1720E7819CCE0CDD7010E1B
:04E4DA00006E1200BE
:10E4DE0078C002F079C003F07BC000F07CC001F080
:10E4EE00010E00017B5F000E7C5B0050011009E005
:10E4FE0002C0E1FF03C0E2FF7AC0E6FF024A032A30
:04E50E00EBD7120035
:10E512000B6A0A6A096A00500402F4CF09F0F3CFC9
:10E5220008F001500502F4CF0BF0F3CF0AF00050CF
:10E532000502F3500926F4500A22E86A0B22015020
:10E542000402F3500926F4500A22E86A0B2208C09A
:10E5520000F009C001F00AC002F00BC003F0120083
:10E562000D012251010A0FE120CD01F01F0E01160B
:10E572000150000A08E1328E2151030A03E1010E23
:10E582002E6E01D02E6A2251000AD8A48BD020CD43
:10E5920001F01F0E01160150020AD8A483D024CD27
:10E5A20001F00F0E01160150000AD8B47BD0328E52
:10E5B20024BF16D024CD03F00F0E031603C000F0C3
:10E5C200000E016E0036009001362A0E0024E96E1C
:10E5D200000E0120EA6EEECF04F0EECF05F015D06A
:10E5E20024CD03F00F0E031603C000F0000E016EDF
:10E5F200003600900136350E0024E96E000E01202F
:10E60200EA6EEECF04F0EECF05F02151030A07E1E6
:10E6120004C0E1FF05C0E2FF840EE66E43D024CDC4
:10E6220000F00F0E0016260E026E0F0E036E005043
:10E632000226D8B0032A02C0E9FF03C0EAFFFE0E99
:10E64200EE14006EEECF01F0FF0E011602C0E1FFE4
:10E6520003C0E2FF00C0E6FF01C0E6FF24AF11D015
:10E6620004C0E1FF05C0E2FFE66A040E0418006E72
:10E6720000C004F004C0E1FF05C0E2FF400EE66EF8
:10E6820011D004C0E1FF05C0E2FF880EE66E040E61
:10E692000418006E00C004F004C0E1FF05C0E2FFF0
:06E6A200C80EE66E120036
:10E6A800000E345C02E1080E335C10E233C003F064
:10E6B80034C004F05250000A03E1010E526E05D036
:10E6C8005250010A02E1020E526E04D0080E036E87
:10E6D800000E046E35C0E1FF36C0E2FFE69235C099
:10E6E800E1FF36C0E2FFE69035C0E9FF36C0EAFF39
:10E6F800EECF00F035C0E1FF36C0E2FF0450001055
:10E70800E66E010E3524E16E000E3620E26E03C07F
:10E71800E6FF0350335C006E04503458016E00C0AD
:10E7280033F001C034F0280E506E0D0E516E32B029
:10E738002FD0035004102BE02FC0F6FF30C0F7FF96
:10E7480031C0F8FF0900F5CF00F050C0E1FF51C01B
:10E75800E2FF00C0E6FF504A512A010E2F24006E46
:10E76800000E3020016E000E3120026E00C02FF026
:10E7780001C030F002C031F0010E035C006E000EE3
:10E788000458016E00C003F001C004F0D2D724D0B1
:10E798000350041021E02FC0E9FF30C0EAFF50C049
:10E7A800E1FF51C0E2FFEECFE6FF504A512A010EC9
:10E7B8002F24006E000E3020016E00C02FF001C023
:10E7C80030F0010E035C006E000E0458016E00C0AC
:0AE7D80003F001C004F0DCD71200CA
:10E7E2000D01286B296B42D0328E28812E50010AEE
:10E7F200D8B4288350D0328E4ED0328E24BF16D059
:10E8020024CD03F00F0E031603C000F0000E016EBC
:10E812000036009001362A0E0024E96E000E012017
:10E82200EA6EEECF04F0EECF05F015D024CD03F062
:10E832000F0E031603C000F0000E016E00360090AA
:10E842000136350E0024E96E000E0120EA6EEECF8D
:10E8520004F0EECF05F004C0E9FF05C0EAFFEECFF9
:10E8620001F001A402D0010E286F15D020CD01F0D5
:10E872001F0E01160150000AB7E020CD01F01F0E55
:10E8820001160150010AB7E020CD01F01F0E01165A
:10E892000150020AB2E032AE07D0280E2F6E0D0EE2
:0AE8A200306E3280020E336E120059
:10E8AC000D012051800AD8A471D0C00E326E64D0F4
:10E8BC006B0E006EFC0E016E010E026E00C02FF08E
:10E8CC0001C030F002C031F0120E336E000E346E07
:10E8DC005DD0030E006E000E016E22CD04F0000E12
:10E8EC00056E11DE430E0024E96E000E0120EA6E67
:10E8FC00EECF2FF0EECF30F0EECF31F0020E2F2412
:10E90C00F66E000E3020F76E000E3120F86E090006
:10E91C00F5CF00F00900F5CF01F000C033F001C0D5
:10E92C0034F034D02251475C23E3030E006E000E0A
:10E93C00016E22CD04F0000E056EE5DD3A0E0024CA
:10E94C00E96E000E0120EA6EEECF2FF0EECF30F024
:10E95C00EECF31F02FC0F6FF30C0F7FF31C0F8FF1B
:10E96C000900F5CF00F000C033F0000E346E01D07A
:10E97C00326A0CD0326A0AD02351010A99E0235131
:0EE98C00020AA7E02351030ACDE0F4D71200DF
:10E99A00328E270E0001786F0F0E796F7A6B010E97
:10E9AA007B6F000E7C6F96DD4B0E786F000E796FD1
:10E9BA007A6B010E7B6F000E7C6F8CDD22CD48F0E6
:10E9CA004850000A03E1100E4F6E0FD0200E4F6E12
:10E9DA00010E786F000E796F480E7A6F000E7B6F0A
:0CE9EA00010E7C6F000E7D6F33DD12000B
:10E9F60000017451000A12E073C000F0000E016EAF
:10EA0600003600900136350E0024E96E000E012016
:10EA1600EA6EEECF04F0EECF05F011D073C000F031
:10EA2600000E016E0036009001362A0E0024E96EB3
:10EA3600000E0120EA6EEECF04F0EECF05F0020ED6
:10EA46000424E16E000E0520E26E75C0E6FF76C076
:10EA5600E6FF010E0424E16E000E0520E26E77C08B
:10EA6600E6FF04C0E9FF05C0EAFFEECF00F004C0F0
:10EA7600E1FF05C0E2FF400E0014E66E04C0E9FFA8
:10EA860005C0EAFFEECF00F004C0E1FF05C0E2FFDB
:10EA9600880E0010E66E7451000A1BE073C000F089
:10EAA600000E016E003600900136350E0024026E0F
:10EAB600000E0120036E02C0E9FF03C0EAFF040E48
:10EAC600EE18006E02C0E1FF03C0E2FF00C0E6FFE1
:10EAD6001AD073C000F0000E016E003600900136A9
:10EAE6002A0E0024026E000E0120036E02C0E9FF0A
:10EAF60003C0EAFF040EEE18006E02C0E1FF03C079
:10EB0600E2FF00C0E6FF04C000F005C001F01200FD
:10EB1600659832BE49D022AE28D0020E396E010E5B
:10EB26003524E16E000E3620E26EE66A35C0E1FF5E
:10EB360036C0E2FFC80EE66E010E1C24E16E000E22
:10EB46001D20E26E080EE66E020E1C24E16E000E1B
:10EB56001D20E26E280EE66E0D0EE66E1CC0E1FF6D
:10EB66001DC0E2FFC80EE66E1ED0010E1C24E16E2B
:10EB7600000E1D20E26E080EE66E020E1C24E16EEB
:10EB8600000E1D20E26E200EE66E0D0EE66E1CC017
:10EB9600E1FF1DC0E2FF8C0EE66E35C0E1FF36C018
:10EBA600E2FF840EE66E7DD022BE7BD00D0120AF43
:10EBB60051D03450275D02E13350265D04E226CD64
:10EBC60033F027CD34F06DDD010E396E010E1C24B5
:10EBD600E16E000E1D20E26E080EE66E020E1C248B
:10EBE600E16E000E1D20E26E200EE66E0D0EE66E44
:10EBF6001CC0E1FF1DC0E2FF800EE66E296A010E11
:10EC06001E24E16E000E1F20E26E080EE66E020E56
:10EC16001E24E16E000E1F20E26E200EE66E0D0E23
:10EC2600E66E1EC0E1FF1FC0E2FF840EE66E010E17
:10EC3600296E020E3524E16E000E3620E26E280E95
:10EC4600E66E0D0EE66E35C0E1FF36C0E2FFC80E79
:10EC5600E66E27D0020E396E010E3524E16E000EE7
:10EC66003620E26EE66A35C0E1FF36C0E2FFC80E26
:10EC7600E66E010E1C24E16E000E1D20E26E080EEB
:10EC8600E66E020E1C24E16E000E1D20E26E280EBA
:10EC9600E66E0D0EE66E1CC0E1FF1DC0E2FFC80E5B
:04ECA600E66E120004
:10ECAA0020CD01F0600E0116050E006E005004E042
:10ECBA000132019EFF0FFBD70150000A01E063D029
:10ECCA003FD0328E080E4F6E5ED0EBDD5CD060DE38
:10ECDA005AD0480E2F6E000E306E3280010E336EFF
:10ECEA00328E51D079DD4FD037DC4DD04B0E006ECD
:10ECFA00000E016E24510026D8B0012A00C02FF060
:10ED0A0001C030F03280010E336E328E3CD0328E2A
:10ED1A004B0EE16E000EE26E2451E126D8B0E22AD3
:10ED2A0022CDE6FF30D0020E0001786F000E796F17
:10ED3A007A6B7B6B7C6B7D6B2DECF2F024D023D04D
:10ED4A000D012151050ABDE02151060ABEE02151FB
:10ED5A00090ABDE02151080ABCE02151000AC2E0BB
:10ED6A002151010AC1E02151030ABEE021510A0AD8
:10ED7A00BDE021510B0ACBE02151070AD4E0215111
:08ED8A000C0ADDE0DCD71200E9
:10ED9200000E0001741902E1000E731902E1016A0A
:10EDA20009D073C0E9FF74C0EAFFEECF00F0016A38
:0AEDB20000BE012A01C000F01200AB
:10EDBC00010E1E24E96E000E1F20EA6EEECF00F04D
:10EDCC0000C002F0000E245C02E10250235C03E25E
:10EDDC0023C002F00AD00250235C006E000E2458AF
:10EDEC00016E00C023F001C024F0036A0250035CE2
:10EDFC001CE2280EE96E0D0EEA6E0350E926D8B01F
:10EE0C00EA2AEECF00F020C0E1FF21C0E2FF00C0F3
:10EE1C00E6FF010E2024006E000E2120016E00C0C2
:10EE2C0020F001C021F0032AE1D7000E006E24501F
:10EE3C00005C02E12350000828E2010E1C24E16E64
:10EE4C00000E1D20E26E080EE66E020E1C24E16E12
:10EE5C00000E1D20E26E280EE66E0D0EE66E1EC034
:10EE6C00E9FF1FC0EAFFEECF00F000BC07D01CC0CA
:10EE7C00E1FF1DC0E2FFC80EE66E06D01CC0E1FF2C
:10EE8C001DC0E2FF880EE66E19D0010E1C24E16E47
:10EE9C00000E1D20E26E080EE66E020E1C24E16EC2
:10EEAC00000E1D20E26E200EE66E0D0EE66E1CC0EE
:0EEEBC00E1FF1DC0E2FF840EE66E229E1200F2
:10EECA00396A35C0E1FF36C0E2FFE66A040E35183A
:10EEDA00E16E36C0E2FF000EE21AE66A22BE229E08
:02EEEA00120014
:10EEEC00160E0F01396F9F0E376F7B0E366F1200A7
:10EEFC00D90E436EFB0E446E010E456E840E3A6EB7
:10EF0C00FC0E3B6E010E3C6E280E3D6EFC0E3E6EF2
:10EF1C00010E3F6E020E406EFC0E416E010E426EF3
:02EF2C001200D1
:10EF2E0035C0E9FF36C0EAFFEECF00F0000E00BCA0
:10EF3E00010E00016F6F040E3518006E00C035F023
:10EF4E004F50080A0BE122CD38FF0F01385100084F
:10EF5E0003E2100E4F6E02D0040E4F6E3950010AAE
:10EF6E0028E1020E3524E16E000E3620E26E280EE8
:10EF7E00E66E0D0EE66E54ECF3F05250020A07E107
:10EF8E0035C0E1FF36C0E2FF840EE66E11D00001FF
:10EF9E006F51000A07E135C0E1FF36C0E2FFC80E2F
:10EFAE00E66E06D035C0E1FF36C0E2FF880EE66E93
:06EFBE0001D084DF120007
:10EFC400200E4F5C03E365B201D002D0006A33D057
:10EFD40053C073F054C074F0DADE00522BE172C0F7
:10EFE40073F0010E746F6FC075F070C076F071C06D
:10EFF40077F0FFDC00C053F001C054F0596A5A6A3C
:10F004005B6A5C6A53C073F054C074F0C0DE005293
:10F0140008E059505A105B105C1002E0006A0BD0F3
:10F02400F1D7010E5324E96E000E5420EA6EEECFA0
:08F0340000F001D0006A120097
:10F03C0035C0E9FF36C0EAFFEECF00F000AE05D0D8
:10F04C0035C0E1FF36C0E2FFE66A526A396A336ABC
:10F05C00346A326A24DE030E0001786F000E796F79
:10F06C007A6B7B6B7C6B7D6B2DECF2F04EDD1200C2
:10F07C003950020A02E19CDE1ED021DF2950000A21
:10F08C0019E1010E1C24E16E000E1D20E26E080E2B
:10F09C00E66E020E1C24E16E000E1D20E26E200EA8
:10F0AC00E66E0D0EE66E1CC0E1FF1DC0E2FF8C0E7D
:08F0BC00E66E01D0296A120082
:10F0C4000F013685EF0E62166582750E0001786FAA
:10F0D400000E796F7A6B7B6B7C6B7D6B2DECF2F0A1
:02F0E400120018
:10F0E60069C002F06AC003F06CC000F06DC001F0A8
:10F0F600010E00016C5F000E6D5B0050011009E00F
:10F1060002C0E1FF03C0E2FF6BC0E6FF024A032A2A
:04F11600EBD7120021
:10F11A00FD0E4E14016E026AFF0E0216000E021850
:10F12A0002E1000E01186CE17E0E4E14016E01C060
:10F13A0003F00332039E03C000F0000E016E003696
:10F14A0000900136003600900136000E0024026E4F
:10F15A000D0E0120036E02C01EF003C01FF002C094
:10F16A001CF003C01DF0040E1C18006E00C01CF039
:10F17A0002C0E9FF03C0EAFFEECF00F000C001F0D1
:10F18A003C0E01160132019E0132019E01500D0A08
:10F19A0035E1020E1E24E96E000E1F20EA6EEECF44
:10F1AA0001F0EECF02F002500D0A02E1280E01181A
:10F1BA0023E1020E1E24E16E000E1F20E26E200ED5
:10F1CA00E66E0D0EE66E0001696B080E695D14E2CB
:10F1DA00200EE16E0D0EE26E6951E126D8B0E22AE8
:10F1EA00280EE96E0D0EEA6E6951E926D8B0EA2AB0
:10F1FA00EECFE6FF692BE9D71CDF01D03ADF0DD04D
:10F20A00FD0E4E14016E026AFF0E0216000E02185F
:0CF21A0002E1040E011801E185DE120083
:10F226000F0126A119D01EC0E9FF1FC0EAFFEECFCD
:10F2360001F00150800A0FE135C0E9FF36C0EAFF50
:10F24600EECF01F00150840A06E11EC0E1FF1FC0A7
:0EF25600E2FF8C0EE66E2691DF0E62161200AD
:10F264004BDE556A566A536A546A636A626A3CDEC4
:10F27400658C386B270E0001786F0F0E796F7A6BEF
:10F28400010E7B6F000E7C6F6FECF2F0659C696B76
:10F29400080E695D16E269C000F0000E016E0036CA
:10F2A40000900136003600900136000E0024E16E15
:10F2B4000D0E0120E26EE66AE66AE66AE66A692BEA
:10F2C400E7D7160E0F01266F62A603D0F70E62165B
:10F2D400FBD7326A226A236A246A6598080E356E5F
:0AF2E4000D0E366E486A4F6A1200E4
:10F2EE00200E4F5C03E365B201D002D0006A24D039
:10F2FE0055C073F056C074F045DD00521CE1010E8E
:10F30E005524E96E000E5620EA6EEECF00F000C0D6
:10F31E006DF06CC073F0746B69C075F06AC076F0F6
:10F32E006BC077F0FBECF4F000C055F001C056F066
:0AF33E006DC000F001D0006A12005B
:10F348006B0E006EFC0E016E010E026E0E0E002496
:10F35800F66E000E0120F76E000E0220F86E09000E
:10F36800F5CF03F003C004F00F0E0024F66E000E74
:10F378000120F76E000E0220F86E0900F5CF01F0AB
:10F388000150035C12E26B0E006EFC0E016E010E62
:10F39800026E0F0E0024F66E000E0120F76E000EAE
:10F3A8000220F86E0900F5CF04F06B0E006EFC0E1B
:10F3B800016E010E026E100E0024F66E000E012082
:10F3C800F76E000E0220F86E0900F5CF01F001502B
:10F3D800045C12E26B0E006EFC0E016E010E026EF2
:10F3E800100E0024F66E000E0120F76E000E0220AB
:0EF3F800F86E0900F5CF04F004C000F012001A
:10F4060000016C6B6D6B6E6B020E6925F66E000E5D
:10F416006A21F76E000E6B21F86E0900F5CF05F034
:10F42600030E6925F66E000E6A21F76E000E6B213B
:10F43600F86E0900F5CF00F000C003F0000E046E70
:10F4460003C001F0006A05500024066E000E01207C
:10F45600076E69C008F06AC009F06BC00AF0010EB9
:10F466000824F66E000E0920F76E000E0A20F86ECC
:10F476000900F5CF01F00150020A1BE1060E08242F
:10F48600F66E000E0920F76E000E0A20F86E0900CF
:10F49600F5CF01F001506C5D0CE2060E0824F66E05
:10F4A600000E0920F76E000E0A20F86E0900F5CF4F
:10F4B6006CF0010E0824F66E000E0920F76E000EA1
:10F4C6000A20F86E0900F5CF01F00150040A1BE18D
:10F4D600080E0824F66E000E0920F76E000E0A20AC
:10F4E600F86E0900F5CF01F001506C5D0CE2080ED4
:10F4F6000824F66E000E0920F76E000E0A20F86E3C
:10F506000900F5CF6CF008C0F6FF09C0F7FF0AC086
:10F51600F8FF0900F5CF00F000506D25016E000ED2
:10F526006E21026E01C06DF002C06EF00750025CE3
:10F5360002E10650015C01E30FD008C0F6FF09C0E6
:10F54600F7FF0AC0F8FF0900F5CF00F000500826C3
:0EF55600000E09220A2283D76CC000F01200BA
:10F56400F2CF02F0F29E69C0F6FF6AC0F7FF6BC0EB
:10F57400F8FF6DC0E9FF6EC0EAFF0A00016A400EA1
:10F58400015C07E2EECFF5FF00000F000000012A46
:10F59400F6D7A68EBF0EA616A684550EA76EAA0E83
:10F5A400A76EA682A69402BE02D0F29E01D0F28E6D
:02F5B400120043
:10F5B600740E0001786F000E796F7A6B7B6B7C6B33
:10F5C6007D6B2DECF2F065920F01369562A403D0A7
:08F5D600FB0E6216FBD71200C8
:10F5DE0069C06FF06AC070F06BC071F0010E00016F
:06F5EE00726FE9DC12005F
:04F5F400A1981200C8
:0AF5F800D08EA288A088F28E1200C7
:10F60200A2DE00C05FF0D90E0001696FFB0E6A6FC7
:10F61200010E6B6FF7DE00C060F05F50005C03E22A
:0CF622005FC000F002D060C000F01200D9
:10F62E00000E046E050E056E036A1550161003E1EA
:10F63E00010E006E32D0800E0901805D016E050E46
:10F64E008159026E0250040A02E1000E011803E114
:10F65E00010E006E22D00350400A02E1006A1DD056
:10F66E00090104C0E9FF05C0EAFF80C9E1FF81C9B5
:10F67E00E2FFEECFE6FF010E8025006E000E812127
:10F68E00016E00C080F901C081F9044A052A010EFD
:0CF69E00155E000E165A032AC8D7120091
:10F6AA004F50000A0AE1656A0F01366B1ADC65B62B
:10F6BA0002D06586FCD7010E4F6E4F50010A09E150
:10F6CA0065BA07D00F01626A366B36813689020E37
:10F6DA004F6E62A406D00F0136A503D0FB0E621648
:10F6EA0065DF65A202D081DF7CD062A019D00F014C
:10F6FA0036A116D0B2DD040E4F6E200E0D01026F38
:10F70A000D0E036F080E016F000E0015006E00C08B
:10F71A0000FD8C0E0011006E00C000FDFE0E621688
:10F72A0062A806D00F0136A903D0C7DCEF0E621615
:10F73A0062AC12D00F0136AD0FD0730E0001786F94
:10F74A00000E796F7A6B7B6B010E7C6F000E7D6FFA
:10F75A002DECF2F0BF0E621662AA04D00F0136AB8E
:10F76A0001D05CDD62A211D00F0136A30ED0FF0ECC
:10F77A000001786F3F0E796F7A6B7B6B010E7C6F9D
:10F78A00000E7D6F2DECF2F0636A040E4F5C02E20C
:10F79A002CDF27D00F0136A723D05F6A040E5F5CE7
:10F7AA001FE262A61AD064CF4EF0F70E6216780EE8
:10F7BA004E14016E0150000A02E1AADC0DD0720E4D
:10F7CA000001786F000E796F4E0E7A6F000E7B6F14
:10F7DA007C6B7D6B2DECF2F001D002D05F2ADED774
:04F7EA0004DF120026
:10F7EE007EECF7F0556A566A536A546A636A626A27
:10F7FE0076ECF7F0658C386B270E0001696F0F0EF3
:10F80E006A6F6B6B010E6C6F000E6D6F65DC659C25
:10F81E005F6A080E5F5C16E25FC000F0000E016EBC
:10F82E00003600900136003600900136000E00249E
:10F83E00E16E0D0E0120E26EE66AE66AE66AE66A9F
:10F84E005F2AE7D7160E0F01266F62A603D0F70EBA
:10F85E006216FBD7326A226A236A246A6598080EFA
:0CF86E00356E0D0E366E486A4F6A1200AF
:10F87A000F0E0501406F5FC041F5400E0001696F30
:0CF88A00050E6A6F400E6B6FA5DE1200C9
:10F896001B50000A17E1000E000A03E10F0E0501D6
:10F8A600001901E00FD001C51BF002C517F003C512
:10F8B60018F004C519F005C51AF006C515F007C5F8
:06F8C60016F000D0120054
:10F8CC004F50000A0CE1656A0F01366B76ECF7F0CD
:10F8DC008DDE65B602D06586FCD7010E4F6E120028
:10F8EC00100E0C6E940E0D6E0D2EFED70C2EFCD73A
:04F8FC0000001200F6
:0AF90000656A0F01366B4F6A1200B2
:10F90A002B0E016E400EE16E050EE26EAE0EF66E25
:10F91A00FB0EF76E010EF86E0900F5CF00F000C07D
:10F92A00E6FF0106F9E1400E0001696F050E6A6FF4
:08F93A00400E6B6F4FDE12005E
:10F94200F2CF00F0F29E65C0F6FF66C0F7FF67C017
:10F95200F8FFA68EBF0EA616A684A688550EA76E21
:10F96200AA0EA76EA682A69400BE02D0F29E01D075
:04F97200F28E1200FF
:10F97600800E0901805D0001656F050E0901815940
:10F986000001666F800E0901806F050E816F800E83
:10F99600006E800E00016619005C02E165510008E8
:10F9A60024E217C069F018C06AF019C06BF01AC0DB
:10F9B6006CF080C96DF081C96EF0D1DD400E00019A
:10F9C600655F000E665B400E09018025006E000E25
:10F9D6008121016E00C080F901C081F9400E172611
:0CF9E600000E182219221A22D2D712009B
:10F9F20057C069F058C06AF0400E00016B6F010EEB
:06FA02006C6F74DC1200C1
:10FA08009C0E0C6ED70E0D6E0D2EFED70C2EFCD74D
:02FA18001200DA
:10FA1A00F3DD00C047F0010E466E61C057F062C0C8
:10FA2A0058F063C049F064C04AF0DCDE000E016E93
:0AFA3A000150010A01E145DF12004E
:10FA44009B8CE0DF000E006E040E016E005001106E
:04FA540000E01200BC
:04FA580053DF120066
:10FA5C005D6A800E0901806F050E816F20DEC3DFA9
:10FA6C000052D8B469D011DF5BD05D5221E0D9DDF2
:10FA7C0000521DE0000E1A5C08E1010E195C05E154
:10FA8C00E00E185C02E1000E175C01E26EDF1BC099
:10FA9C005FF0EDDE800E0901806F050E816F000EA8
:10FAAC00161802E1000E151802E15D6A1B6A02D0FD
:10FABC00010E5D6E41D015C000F016C001F0010EB4
:10FACC00155E000E165A005001101DE0000E1A5C57
:10FADC0008E1010E195C05E1E00E185C02E1000E74
:10FAEC00175C09E217C065F018C066F019C067F022
:10FAFC001AC068F020DF000E175E040E185A000EB4
:10FB0C00195A1A5AD8D71BC05FF0B1DE1B6A14D031
:10FB1C001BC05FF0ACDE1B6A0FD0FF001B6A0CD061
:10FB2C001B500B0AA2E01B50150AC5E01B50010A22
:0CFB3C00EFE01B50040AF1E091D712002A
:10FB4800880E5D6E130E5E6EACDD4FDF005213E063
:10FB58009EDE0BD01BC05FF08CDE1B6A51DF010EEE
:10FB6800006E18D0CEDE1B6A06D01B50030AF2E0E6
:10FB78001B50020AF7E0B6DE5DC000F05EC001F07F
:10FB8800010E5D5E000E5E5A0050011002E1006A2F
:06FB980001D0DAD71200D3
:10FB9E000900F5CFE6FF0006FBE10106F9E11200D0
:10FC880010EE15F0070E006E010E016E7D0EF66E79
:0EFC9800FC0EF76E010EF86ECFECFDF01200C0
:10FBAE002B010308F8FF01000300040440000500C8
:10FBBE00130600E001000750494320436C69636B54
:0BFBCE00657200000000000000000055
:10FBD9000902290001010080320904000002030022
:10FBE90000000921010100012221000705810340CC
:09FBF900000107050103400001B1
:10FC020026035500530042002000480049004400EA
:10FC1200200042006F006F0074006C006F006100F2
:06FC2200640065007200A1
:10FC280022034D0069006B0072006F0065006C00D4
:10FC380065006B00740072006F006E0069006B0055
:02FC4800610059
:10FC4A000600FF0901A10119012940150026FF003C
:10FC5A00750895408102190129407508954091025D
:01FC6A00C0D9
:10FC6B001201000200000008341201000100010221
:02FC7B00000186
:02FC7D00000085
:04FC7F000000000081
:01FC83000080
:04FC84000403090468
:020000040001F9
:08FFF800A8F7FDFFF7F8FFFB7D
:00000001FF
